:020000040800F2
:10000000583E002015020008C50C00080B0A000825
:10001000C10C0008A9030008A3210008000000008B
:10002000000000000000000000000000731700083E
:10003000AD03000800000000010F0008851800084B
:100040002F0200082F0200082F0200089912000852
:100050002F0200082F020008B10300084104000825
:10006000D1040008610500082F0200082F020008D3
:100070002F0200082F0200082F0200082F0200089C
:100080002F0200082F0200082F0200082F0200088C
:100090002F0200082F0200082F0200082F0200087C
:1000A0002F0200082F0200082F0200082F0200086C
:1000B0002F020008291B0008C91B00082F02000896
:1000C0002F0200082F0200082F0200082F0200084C
:1000D0002F020008811F00082F0200082F020008CD
:1000E0002F0200082F0200082F0200082F0200082C
:1000F0002F0200082F0200082F0200082F0200081C
:100100002F0200082F0200082F0200082F0200080B
:100110002F0200082F0200082F0200082F020008FB
:100120002F0200082F0200082F0200082F020008EB
:1001300000F002F800F05EF80AA090E8000C82449B
:100140008344AAF10107DA4501D100F053F8AFF278
:10015000090EBAE80F0013F0010F18BFFB1A43F0A5
:1001600001031847D0380000F038000010F8013BB8
:100170000A4413F0030408BF10F8014B1D1108BF17
:1001800010F8015B641E05D010F8016B641E01F8C5
:10019000016BF9D1002D15D010F8014B03F00C03C1
:1001A0000C2BA1EB04040ABF10F8013BA4EB831451
:1001B000A4EB032405F1010314F8016B5B1E01F8A5
:1001C000016BF9D5914238BF10F8013BD1D370478C
:1001D0000023002400250026103A28BF78C1FBD850
:1001E000520728BF30C148BF0B6070471FB51FBD05
:1001F00010B510BD00F06EF81146FFF7F7FF02F0E2
:10020000C3FB00F0A0F803B4FFF7F2FF03BC01F05A
:10021000CAFF00000948804709480047FEE7FEE79B
:10022000FEE7FEE7FEE7FEE7FEE7FEE7FEE7FEE7A6
:1002300004480549054A064B704700008918000824
:100240003101000858380020583E0020583A00205C
:10025000583A0020704700000FB4044910B503AAB3
:10026000029800F009F810BC5DF814FB2C00002087
:100270007047704770477047074B70B50D467B4419
:1002800000F011F80446284600F020F810B14FF0B5
:10029000FF3070BD204670BDE323000001694A1C99
:1002A00002610878704700B58FB0CDE901310021B7
:1002B000059105497944CDE903101146684600F0DF
:1002C0002EF80FB000BD0000E5FFFFFF007B00F03F
:1002D00080007047754600F03FF8AE46050069465D
:1002E000534620F00700854618B020B5FFF7A0FF61
:1002F000BDE820404FF000064FF000074FF0000827
:100300004FF0000B21F00701AC46ACE8C009ACE8A7
:10031000C009ACE8C009ACE8C0098D4670472DE9BA
:10032000F04106460024D6E90170F5688046304663
:1003300003E04146B847641C3046A8470028F8D17E
:100340002046BDE8F08110B50446AFF3008020469A
:10035000BDE81040FFF757BF00487047F437002052
:1003600010B5012000F0EEFD002000F0EBFD10BD07
:1003700008B501460020009003480090009808440A
:1003800000900098008808BD006C004008B500226D
:100390000092044A0092009A02440092009A11606E
:1003A00008BD0000006C004000BFFEE77047000081
:1003B00010B50A2002F00AF91D48006801282DD165
:1003C000002002F087F91B4800686FF30F001949FD
:1003D00008600846006848F6880108431549086027
:1003E0000A2002F0F3F81448006810B9A22013495B
:1003F00008601148001D006810B962200F490860AC
:100400000D480830006810B9E2200C4908600A481D
:100410000C30006810B910200849086002F0A4FAF6
:10042000012002F087F9012000F068F910BD0000FA
:10043000008121420010014000012242982E00203C
:1004400010B50A2002F0C2F81D48006801282DD11D
:10045000002002F03FF91B4800686FF30F001949B4
:1004600008600846006848F6880108431549086096
:100470000A2002F0ABF81448006810B92220134992
:1004800008601148001D006810B902200F4908607B
:100490000D480830006810B9C2200C4908600A48AD
:1004A0000C30006810B918200849086002F05CFAA6
:1004B000012002F03FF9022000F020F910BD0000F9
:1004C000048121420010014000012242982E0020A8
:1004D00010B50A2002F07AF81D48006801282DD1D5
:1004E000002002F0F7F81B4800686FF30F0019496D
:1004F00008600846006848F6880108431549086006
:100500000A2002F063F81448006810B9E02013498B
:1005100008601148001D006810B9A8200F49086044
:100520000D480830006810B990200C4908600A484E
:100530000C30006810B94A200849086002F014FA2B
:10054000012002F0F7F8042000F0D8F810BD0000F8
:10055000088121420010014000012242982E002013
:1005600010B51D48006801282DD1002002F0B2F816
:100570001A4800686FF30F001849086008460068C1
:1005800048F688010843154908600A2002F01EF861
:100590001348006810B96820124908601048001D0F
:1005A000006810B998200F4908600D4808300068AD
:1005B00010B9B0200B49086009480C30006810B928
:1005C00038200849086002F0CFF9012002F0B2F8A3
:1005D000082000F093F810BD0C812142001001406A
:1005E00000012242982E00200EB50121084600F09D
:1005F00099FC00F00FFB0021012000F059F90120C7
:10060000019000208DF8080008208DF809000120D5
:100610008DF80A0001A800F077F80121084600F0E3
:1006200047F90220019000208DF8080008208DF87D
:10063000090001208DF80A0001A800F065F80221E8
:10064000012000F035F90420019000208DF8080009
:1006500008208DF8090001208DF80A0001A800F09B
:1006600053F80321012000F023F908200190002015
:100670008DF8080008208DF8090001208DF80A0087
:1006800001A800F041F806208DF8000002208DF846
:10069000010000208DF8020001208DF8030068465B
:1006A00000F012FB07208DF8000002208DF80100F9
:1006B00001208DF802008DF80300684600F004FB6D
:1006C00008208DF8000002208DF801008DF802004E
:1006D00001208DF80300684600F0F6FA09208DF835
:1006E000000002208DF801008DF8020001208DF835
:1006F0000300684600F0E8FA0EBD000001490860FA
:100700007047000014040140002123498279002A27
:100710003AD00A46126803689A430B461A600A1DCB
:10072000126803689A430B1D1A60027911440A6823
:1007300003681A430A60184A0832126803689A4329
:10074000154B08331A601A1D126803689A43124B3E
:100750000C331A604279102A0ED11A1F12680368EE
:100760001A430D4B08331A601A1D126803681A43A6
:10077000094B0C331A600DE00749427911440A68AD
:1007800003681A430A6005E0027911440A680368A5
:100790009A430A60704700000004014030B50446E7
:1007A00004254FF4302000F06FF80546042D17D1D2
:1007B0000C48006940F002000A490861084644619B
:1007C000006940F0400008614FF4302000F05CF810
:1007D00005460448006941F6FD7108400149086179
:1007E000284630BD0020024004200B49C96801F0B2
:1007F000010109B101200EE00749C96801F00401B7
:1008000009B1022007E00449C96801F0100109B1EB
:10081000032000E0042070470020024003480069E4
:1008200040F080000149086170470000002002404C
:1008300070B504460D460426F00200F025F8064681
:10084000042E11D10948006940F0010007490861F0
:100850002580F00200F018F806460448006941F6C9
:10086000FE71084001490861304670BD0020024019
:1008700002480349486003484860704723016745C0
:1008800000200240AB89EFCD00B502460423FFF7FC
:10089000ABFF034603E0FFF7A7FF0346521E012B01
:1008A00001D1002AF7D102B90523184600BD000086
:1008B00030B500228B071C0F0F2303FA04F20B4BF9
:1008C0008C1053F824309343084C8D1044F8253095
:1008D00023468C1053F824308C07240F00FA04F4BC
:1008E0002343024C8D1044F8253030BD08000140F0
:1008F0002DE9F041024600250026002000230024B7
:10090000002791F803C00CF00F0591F803C00CF01C
:10091000100CBCF1000F03D091F802C04CEA0505A1
:1009200091F800C0BCF1000F31D0146800202BE01A
:100930004FF0010C0CFA00F3B1F800C00CEA03060A
:100940009E4220D183004FF00F0C0CFA03F7BC43FA
:1009500005FA03FC4CEA040491F803C0BCF1280F2B
:1009600006D14FF0010C0CFA00FCC2F814C00AE0EA
:1009700091F803C0BCF1480F05D14FF0010C0CFAFF
:1009800000FCC2F810C0401C0828D1D31460B1F894
:1009900000C0BCF1FF0F34DD546800202EE000F1F0
:1009A000080C4FF0010808FA0CF3B1F800C00CEA8B
:1009B00003069E4221D183004FF00F0C0CFA03F77F
:1009C000BC4305FA03FC4CEA040491F803C0BCF1F3
:1009D000280F05D100F1080C08FA0CF8C2F81480B1
:1009E00091F803C0BCF1480F07D100F1080C4FF09B
:1009F000010808FA0CF8C2F81080401C0828CED371
:100A00005460BDE8F0810161704700BFFEE700005F
:100A100008B50121082000F085FA10208DF80300A8
:100A20008020ADF8000003208DF8020069460B48D5
:100A3000FFF75EFF10208DF803004020ADF80000A6
:100A400003208DF8020069460448FFF751FF01209A
:100A5000034908600349C1F8980108BD000C014032
:100A60009C8121420080214270B5044615480068EF
:100A700020F07060134908600846006840F040703C
:100A80000860002010490860002517E0E0090E49C1
:100A9000091F08606006040E022001F0BDFD012060
:100AA0000A49C1F89C01022001F0B6FD0020064968
:100AB0000860022001F0B0FD681CC5B2082DE5DB1E
:100AC00070BD0000000C01409C8121420080214249
:100AD00010B51048006820F070600E4908600846A4
:100AE000006840F04070086001200B4908600B4925
:100AF000C1F89801042001F08FFD00200649091F6C
:100B00000860042001F088FD00200449C1F89C0120
:100B100010BD0000000C01409C8121420080214258
:100B200010B51148006820F070600F490860084651
:100B3000006840F04070086000200C4908600C49D3
:100B4000C1F89801042001F067FD01200749086001
:100B5000042001F061FD01200549C1F8980104203D
:100B600001F05AFD10BD0000000C01409C812142A3
:100B70000080214210B500241448006820F0706005
:100B8000124908600846006840F0006008600120D3
:100B90000F49086001F040FD01200E49C1F89C0199
:100BA00001F03AFD07E0601CC4B2FA2C03DDFFF748
:100BB000B7FF012010BD0648803800680028F2D138
:100BC0000349091D086000BFF4E70000000C014064
:100BD00098812142008021420146CA1701EB92729E
:100BE0009210A1EB820292B9642091FBF0F200FB1B
:100BF000121050B94FF4C87091FBF0F200FB1210C4
:100C000008B9012070470020FCE70120FAE7002026
:100C1000F8E7000008B50121182000F083F90F2043
:100C2000ADF8000028208DF8030069460E48FFF754
:100C30005FFE0F20ADF8000028208DF80300694604
:100C40000A48FFF755FE084800686FF30F00064991
:100C500008600846006840F68801084302490860B9
:100C6000012001F067FD08BD000C014000100140AB
:100C700008B50121082000F055F94FF4D840ADF82F
:100C8000000010208DF8030003208DF80200694653
:100C90000848FFF72DFE0120074908600749C1F801
:100CA000B80100200449083908600449C1F8A801C6
:100CB00008BD0000000C0140B481214200802142A7
:100CC00000BFFEE77047000070B5002100230F222F
:100CD000C47804B3154C246804F4E064C4F5E064FB
:100CE000210AC1F10403CA40447804FA03F184786C
:100CF0001440214309010E4C0678A155047804F0F4
:100D00001F050124AC4005786D11AD0005F1E0250B
:100D1000C5F8004109E0047804F01F050124AC4047
:100D2000044D0678761145F8264070BD0CED00E0C4
:100D300000E400E080E100E002490143024A116062
:100D4000704700000000FA050CED00E010B500212E
:100D5000202000F0B3F80021084600F0AFF8002191
:100D6000212000F0ABF80021084600F0A7F8002190
:100D7000FF2000F0A3F80021222000F09FF80021BE
:100D8000084600F09BF80021072000F097F80024A7
:100D900004E00121002000F091F8641CB4F5806F9C
:100DA000F7DB10BD10B50021AE2000F087F8002160
:100DB000084600F083F80021102000F07FF80021A1
:100DC000402000F07BF80021812000F077F800211E
:100DD000CF2000F073F80021A12000F06FF800216F
:100DE000C82000F06BF80021A62000F067F8002171
:100DF000A82000F063F800213F2000F05FF80021F8
:100E0000D32000F05BF80021084600F057F80021DD
:100E1000D52000F053F80021802000F04FF8002189
:100E2000D92000F04BF80021F12000F047F8002114
:100E3000DA2000F043F80021122000F03FF80021F2
:100E4000DB2000F03BF80021402000F037F80021C3
:100E5000202000F033F80021084600F02FF8002190
:100E60008D2000F02BF80021142000F027F800213D
:100E7000A42000F023F80021A62000F01FF8002194
:100E8000AF2000F01BF80021212000F017F800210E
:100E9000084600F013F80021FF2000F00FF80021B1
:100EA000222000F00BF80021084600F007F800218E
:100EB000072000F003F8FFF749FF10BD70B50546A5
:100EC0000C46FFF705FE7820FFF7CEFDFFF752FE38
:100ED0001CB14020FFF7C8FD02E00020FFF7C4FD71
:100EE000FFF748FE2846FFF7BFFDFFF743FEFFF779
:100EF00017FE70BD014908627047000000000E42F5
:100F00007047000029B1064AD2690243044BDA61F6
:100F100004E0034AD2698243014BDA617047000062
:100F20000010024029B1064A92690243044B9A61BB
:100F300004E0034A92698243014B9A6170470000C2
:100F4000001002400149086070470000400442421E
:100F500030B500210022002400232D4D6D6805F0DE
:100F60000C0121B1042905D0082923D105E0294D20
:100F7000056022E0274D05601FE0254D6D6805F4F2
:100F80007012234D6D6805F48034022505EB924202
:100F90001CB9214D554305600BE01D4D6D6805F4EE
:100FA00000351DB11C4D5543056002E0194D5543F8
:100FB000056002E0174D056000BF00BF144D6D686D
:100FC00005F0F0010909154D6B5C0568DD404560D1
:100FD0000F4D6D6805F4E061090A104D6B5C4568C2
:100FE000DD4085600A4D6D6805F46051C90A0B4DFE
:100FF0006B5C4568DD40C560054D6D6805F440419A
:10100000890B074D6B5CC568B5FBF3F5056130BD19
:101010000010024000127A0000093D001400002078
:101020002400002010B501460022002300204A11B0
:10103000012A02D1094C236806E0022A02D1074C9A
:10104000236A01E0054C636A01F01F020124944009
:101050001C400CB1012000E0002010BD0010024037
:1010600000210B4A11700A4A203A82F82010012808
:1010700002D0042808D103E00121054A117004E0E0
:101080000521034A117000E000BF00BF7047000057
:101090002010024001490860704700003C044242B1
:1010A0000249096A0143014A116270470010024077
:1010B000024909888143014A118070470428004091
:1010C0000348008840F01000014908807047000084
:1010D00004280040034800884FF6EF71084001499A
:1010E000088070470428004070B5002600240025C1
:1010F00000F07AF806463848B6FBF0F43748008826
:10110000A0423CD035490C8040F2B27510E0284630
:10111000FFF762FD40B1B4F5B77F02D3A4F5B77411
:1011200004E0681C85B206E0A4F26D14681C85B268
:10113000B4F5B67FEBD800BF29488580002516E0BE
:1011400027498888FFF748FD30B1012D04D11D2CB7
:1011500001D31D3C09E00CE02248405DA04203D8C9
:101160002048405D241A00E003E0681C85B21C2C76
:10117000E6D200BF681C1A498871601CC871164805
:10118000B6FBF0F100FB11644FF46160B4FBF0F0CA
:10119000134908704FF46160B4FBF0F100FB11409B
:1011A0003C21B0FBF1F00E4948704FF46160B4FB94
:1011B000F0F100FB11403C21B0FBF1F201FB120009
:1011C000074988700B46DA799979988800F028F8F1
:1011D00003490872002070BD80510100F6220020F2
:1011E000E82F0020283A0008002103480188001F4A
:1011F000008841EA004070471C280040014600205A
:10120000064A12880A40D0B2044A121F12880A40C5
:1012100012B108B1012000E000207047042800400E
:10122000F0B503460C461546642093FBF0F0C6B2B9
:10123000642093FBF0F700FB1730C1B2132E02DDE0
:1012400001F16400C1B20846CF1701EB977701EBBB
:10125000A707BAB2072092FBF0F700FB172082B273
:101260005719601EDFF82CC01CF80000384482B209
:10127000CF1701EB9777BF10A1EB87071FB9032C9E
:1012800001DA501E82B2072092FBF0F700FB172014
:10129000C0B2F0BD1C3A000810B50120FFF7AEFF48
:1012A00008B1FFF721FF0220FFF7A8FF10B10220CD
:1012B000FFF7FEFE0520FFF7FBFE00F005F910BD6D
:1012C00029B1064A12880243044B1A8004E0034AFB
:1012D00012888243014B1A807047000000280040AA
:1012E0001CB5002401214FF0C050FFF70BFE012078
:1012F000FFF700FE0420FFF73BF845F2500188425B
:101300003FD0FFF72DF80120FFF7AAFE04E0601C94
:10131000C4B20A2001F05AF94120FFF783FE0028E9
:10132000F5D0FA2C01DB01201CBD4FF48070FFF7D3
:10133000B7FE0120FFF7AEFE00F0C6F800F0CEF8D1
:1013400001210846FFF7BCFF00F0BEF8FFF7B8FE2A
:1013500047F6FF7000F0A8F800F0B6F81E2019213B
:1013600015231D22CDE90010042140F2E67000F0A3
:1013700027F8FFF7AFFE45F250010420FFF706F80B
:1013800007E000F0ABF801210846FFF799FF00F0F5
:101390009BF800F004F8FFF7A7FE0020C4E708B5AB
:1013A00003208DF8000000208DF801008DF8020068
:1013B00001208DF803006846FFF786FC08BD000099
:1013C0002DE9F05F06460F4690469946DDE90AABE7
:1013D000002440F2B270864203DB40F633008642BE
:1013E00002DD0120BDE8F09F40F2B2750AE0284618
:1013F000FFF7F2FB10B12148044401E02048044407
:10140000681C85B2B542F2DB781EC7B2002510E039
:101410001C48405D40F2A321484304EBC014304611
:10142000FFF7DAFB18B1012D01D117480444681CFD
:1014300085B2BD42ECDBA8F1010040F2A321484394
:1014400004EBC014C9EB4910C0EB092004EB0014F5
:10145000CAEB0A1004EB80045C4401214FF0C05039
:10146000FFF750FD0120FFF745FD204600F00EF884
:1014700000F02AF8FFF738FE0020B3E70085E2010C
:101480008033E101283A00088051010000B502468E
:10149000FFF716FE100C03490880091D0A80FFF7AC
:1014A00019FE00BD1828004000B50246FFF708FEEF
:1014B000C2F3034003490880091D0A80FFF70AFEB2
:1014C00000BD00000828004000BF0348008800F06D
:1014D00020000028F9D07047042800400748008801
:1014E0004FF6F77108400549088000BF034800889F
:1014F00000F008000028F9D07047000004280040E0
:1015000000B589B001210820FFF70CFD012104205E
:10151000FFF7F8FC4FF40070ADF8200028208DF89C
:10152000230003208DF8220008A92248FFF7E0F9E4
:101530004FF400711F48FFF766FA42F21070ADF8E1
:1015400014004720ADF810000020ADF81600ADF8EB
:10155000120004A9184800F0C1FC0C20ADF80400EA
:101560000020ADF806000120ADF808000020ADF81D
:101570000A000320ADF80C0001A90F4800F014FC8C
:1015800001210D4800F0EFFB1E208DF81C0001200A
:101590008DF81D0003208DF81E0001208DF81F001E
:1015A00007A8FFF791FB01221121034800F052FC2C
:1015B00009B000BD000C01400008004010B500203B
:1015C0001A4B1B7803F040032BB3194B1B68190E01
:1015D000174B1B68C3F30742D343DBB28B420BD1DB
:1015E00051B9134B1B88C3F30721114B1A78D3430E
:1015F000DBB28B4200D1084620B10C4B1B7803F0C4
:10160000800343B9094B1B7823F04003074C237038
:101610000023084C2370084B1B685B1C2BB1064B46
:1016200018784FF0FF33044C236010BDC40B00202A
:10163000C80B0020CC0B0020982E002030B50346AC
:101640000C461546002207E0184600F008F824F87A
:1016500012009B1C501C82B2AA42F5DB30BD014631
:10166000088870472DE9F05F80468A461746B8F132
:10167000006F02D33348804501D3BDE8F09FFFF7E8
:10168000F7F8A8F1006B4FEADB25CBF34909C9F560
:101690008064A74200DC3C464DE04FF0006101EB66
:1016A000C5204A142849FFF7C9FF00260BE009EBC3
:1016B0000600254931F810004FF6FF71884200D02E
:1016C00003E0701C86B2A642F1DB00BFA6421BDA23
:1016D0004FF0006101EBC520FFF760F8002608E03D
:1016E0003AF8160006EB0901174A22F81100701C9F
:1016F00086B2A642F4DB4FF0006101EBC5204A142C
:10170000114900F023F804E022465146404600F01B
:101710001DF8A74200D10FE06D1C4FF000090AEB45
:10172000440AA044381B87B2B7F5806F02DD4FF43E
:10173000806400E03C46B0E700BFFFF76FF800BFF1
:101740009BE7000000000408F22F00202DE9F04183
:1017500005460E461746002407E036F814102846C2
:10176000FFF766F8AD1C601C84B2BC42F5DBBDE837
:10177000F081704710B500F001F810BD0CB50020E5
:10178000019000903348006840F48030314908608F
:1017900000BF3048006800F4003000900198401C01
:1017A0000190009818B90198B0F5A06FF1D12948BF
:1017B000006800F4003010B10120009001E000202A
:1017C00000900098012843D12348006840F01000A1
:1017D000214908600846006820F0030008600846B8
:1017E000006840F0020008601A48406819494860E3
:1017F0000846406848600846406840F48060486099
:101800000846406820F47C1048600846406840F470
:10181000E81048600846006840F08070086000BF2B
:101820000C48006800F000700028F9D009484068B2
:1018300020F00300074948600846406840F0020075
:10184000486000BF0348406800F00C000828F9D148
:101850000CBD00000010024000200240042808D106
:101860004FF0E021096941F004014FF0E0221161DD
:1018700007E04FF0E021096921F004014FF0E02278
:10188000116170477047000010B51348006840F0C0
:1018900001001149086008464068104908400E4997
:1018A0004860084600680E4908400B490860084631
:1018B000006820F4802008600846406820F4FE009C
:1018C00048604FF41F008860FFF754FF4FF000603E
:1018D0000449086010BD0000001002400000FFF83D
:1018E000FFFFF6FE08ED00E0F0B50C4615460022BD
:1018F0000021068C4FF6FE773E400684028B018C59
:101900004FF60C7632407E1C06EA03162E43324315
:10191000104EB0420ED0104EB0420BD0B0F1804FFE
:1019200008D00E4EB04205D00D4EB04202D00D4E42
:10193000B04206D14FF6FD76314044F00106314306
:1019400005E04FF6F576314044F00106314302835D
:101950000184F0BD002C014000340140000400402F
:1019600000080040000C0040F0B50C46154600226F
:1019700000210026078C4FF6EF7C07EA0C0707844E
:10198000028B018C4FF6FF7707EA041640F6FF47FB
:101990003A404FF6FF7707EA03373A434FF6FF77AF
:1019A00007EA05273A43114FB8420ED0104FB8420C
:1019B0000BD0B0F1804F08D00E4FB84205D00E4F7B
:1019C000B84202D00D4FB84206D14FF6DF7739400A
:1019D00046F01007394305E04FF65F77394044F091
:1019E0001007394302830184F0BD0000002C014040
:1019F000003401400004004000080040000C00409A
:101A0000F0B50C461546002200210026078C4FF643
:101A1000FF6C07EA0C070784828B018C4FF6FF7777
:101A200007EA04264FF60C773A404FF6FF7707EAAD
:101A300003172F433A43114FB8420ED0104FB8420C
:101A40000BD0B0F1804F08D00E4FB84205D00E4FEA
:101A5000B84202D00D4FB84206D14FF6FF57394079
:101A600046F48077394305E04FF2FF57394044F49C
:101A70008077394382830184F0BD0000002C01404F
:101A8000003401400004004000080040000C004009
:101A9000F0B50C461546002200210026078C4EF6B4
:101AA000FF7C07EA0C070784828B018C4FF6FF77D7
:101AB00007EA043640F6FF473A404FF6FF7707EA59
:101AC00005273A434FF6FF7707EA03373A43114FAA
:101AD000B8420ED0104FB8420BD0B0F1804F08D0B2
:101AE0000E4FB84205D00E4FB84202D00D4FB8424B
:101AF00006D14DF6FF77394046F48057394305E06B
:101B000047F6FF57394044F48057394382830184B4
:101B1000F0BD0000002C01400034014000040040F2
:101B200000080040000C004010B501210B4800F0F7
:101B30002AF988B10A480068401C0949086008462B
:101B4000006842F21071884202D101200549086004
:101B50000121024800F004F910BD0000000400401B
:101B6000A42E0020A82E00207FB505460C4601219A
:101B70000220FFF7C7F9ADF80850ADF80440002087
:101B8000ADF80A00ADF8060001A90E4800F0A6F96C
:101B9000012211460B4800F05DF91D208DF8000070
:101BA00000208DF8010003208DF8020001208DF83F
:101BB00003006846FFF788F80121024800F0D3F8D7
:101BC0007FBD00000004004010B501215E4800F018
:101BD000DAF8F8B15D48007800F08000D0B15B48D9
:101BE000007820F01000594908700846007800F08D
:101BF0000F0020B90846007840F0400008705348B4
:101C0000007800F00F000E2805DA50480078401CDC
:101C10004E4908700AE04D48007820F080004B499A
:101C200008700846007800F0F0000870102146485F
:101C300000F0A9F8002810D04548006870B10221D2
:101C4000414800F010F900213F4800F019F93F48E1
:101C5000007840F010003D49087070E03A4800F00C
:101C60008EF83C4908800021374800F0FCF83748DE
:101C7000007800F0100000285BD03448007800F0B5
:101C80008000E8B333480088B0F5967F0DDD314819
:101C90000088B0F5487F08DA2F48006840002E49D8
:101CA000086008460068086043E02A480088B0F5EC
:101CB000AF6F0FDD27480088B0F5E16F0ADA2648DC
:101CC00000684000244908600846006840F00100B0
:101CD00008602EE01F48008840F69801884228DD01
:101CE0001C48008840F62821884222DA1B480078E8
:101CF000401C1A4908701548007800F0F00000E018
:101D000002E01249087014E01248008841F26801AC
:101D100088420EDD0F48008841F25C21884208DAD3
:101D20000A48007840F080000849087000200B49FC
:101D300008700648007820F010000449087011214E
:101D4000014800F00DF810BD00080040C40B002051
:101D500024812142C60B0020C80B0020CC0B0020A0
:101D6000CA430282704721B1028842F00102028018
:101D700004E002884FF6FE731A4002807047014665
:101D8000B1F84000704730B502460020002300241F
:101D9000158A05EA0103958905EA010413B10CB11E
:101DA000012000E0002030BD70B505460C462448F7
:101DB00085420ED0234885420BD0B5F1804F08D024
:101DC0002148854205D02148854202D020488542DD
:101DD00000D100E000BF208850B92389A288618823
:101DE0002846FFF781FDE188284600F04BF825E002
:101DF000208804280AD12389A28861882846FFF711
:101E0000B3FDE188284600F046F817E0208808284E
:101E10000AD12389A28861882846FFF7F1FDE1886D
:101E2000284600F045F809E02389A2886188284601
:101E3000FFF72EFEE188284600F043F870BD000051
:101E4000002C014000340140000400400008004024
:101E5000000C00401AB183890B43838102E083891F
:101E60008B43838170470A460021018C4DF6FF7336
:101E700019404FF6FF7303EA023319430184704798
:101E800081847047028B4FF6F3731A400283028BF2
:101E90000A4302837047028B4FF2FF331A400283DA
:101EA000028B4FF6FF7303EA01231A430283704744
:101EB000828B4FF6F3731A408283828B0A438283AC
:101EC0007047828B4FF2FF331A408283828B4FF62A
:101ED000FF7303EA01231A438283704700220288BA
:101EE0001D4B98420ED01D4B98420BD0B0F1804F45
:101EF00008D01B4B984205D01A4B984202D01A4B7F
:101F0000984204D14FF68F731A404B881A43174BEF
:101F1000984207D0164B984204D04FF6FF431A4020
:101F2000CB881A4302808B8883850B8803850A4BF4
:101F300098420BD0094B984208D00E4B984205D0DE
:101F40000D4B984202D00D4B984201D10B7A03867B
:101F50000123838270470000002C014000340140BF
:101F60000004004000080040000C00400010004049
:101F7000001400400040014000440140004801407E
:101F800010B540F225511D4800F04AF810B31B4827
:101F900000F002F9C4B21A48008800F40040C8B941
:101FA0001748008800F4804060B10A2C03D000205C
:101FB0001349088020E01248008840F4004010498E
:101FC000088019E00D2C06D10D48008840F48040AF
:101FD0000B49088010E00A480088C0F30D00094949
:101FE0000C5407480088401C0549088008460088B2
:101FF000C72801DD0020088010BD00000038014026
:1020000030000020202F002021B1828942F40052AC
:10201000828104E082894DF6FF731A408281704705
:1020200070B50246002400230025002040F66A1601
:10203000B14200D100BFC1F3421501F01F030126D8
:1020400006FA03F3012D02D19689334006E0022DF2
:1020500002D1168A334001E0968A33400C120126E1
:1020600006FA04F41688344013B10CB1012000E0E4
:10207000002070BDF0B50346002400260025002096
:1020800040F66A17B94200D100BF1846C1F34214A6
:1020900001F01F06012707FA06F5012C01D10C30CB
:1020A00004E0022C01D1103000E014301AB10768AE
:1020B0002F43076002E00768AF430760F0BD0000F0
:1020C0002DE9F04786B005460E460024A24600BF23
:1020D000A1460027B08900B100BF2F462C8A4CF6DC
:1020E000FF700440F08804432C82AC894EF6F31054
:1020F0000440B08831890843718908430443AC81A6
:10210000AC8A4FF6FF400440B0890443AC8201A87A
:10211000FEF71EFF1F48874202D1DDF810A001E044
:10212000DDF80CA0A88900F4004040B10AEBCA0019
:1021300000EB0A1031684900B0FBF1F807E00AEB48
:10214000CA0000EB0A1031688900B0FBF1F8642086
:10215000B8FBF0F004012009642101FB1089A88973
:1021600000F4004040B1322000EBC900B0FBF1F0B8
:1021700000F00700044308E0322000EB091064215E
:10218000B0FBF1F000F00F0004432C8106B0BDE875
:10219000F08700000038014001468888C0F308003D
:1021A000704700BFFEE700BF704700002DE9FC410B
:1021B000FEF7CCFD00F016FF48E0FFF7FFF90546FB
:1021C000002D3FD0002026490860E8B200F0E2FA76
:1021D00024480068401C28B1224800780DF804000B
:1021E000601CC4B2E8B200F037FB1E4800680C283F
:1021F00000D101271FB12146684601F0D6FA1948DF
:1022000000680D2800D1002717B9204600F038FAE1
:10221000062C10D11449684601F04FFA064616B153
:102220000120BDE8FC810024FEF790FD002000F0B5
:10223000BBFF0020F5E7C82000F0C8F9FFF7BEF9A2
:10224000054600254FF4FA7000F0C0F90548006813
:102250000F2803D0054800680028AED00020E0E732
:10226000A42E00209C2E0020882E0020A82E0020C6
:1022700038B10021074A11600121074AC2F8AC11A8
:1022800006E00121034A11600021034AC2F8AC11A3
:1022900070470000B4812142008021422DE9FF41B6
:1022A00000240025FEF752FD002000F043FDC82069
:1022B00000F08CF9FFF782F9074600277CE0FFF772
:1022C0007DF90746002F73D0002041490860384649
:1022D00000F060FA3F480068401C58B125B13D4805
:1022E00000780DF8040003E03A48007802A9085588
:1022F000601CC4B2384600F0AFFA364800680C28BB
:1023000001D14FF00108B8F1000F09D025B12146E5
:10231000684601F04AFA03E0214602A801F045FAB6
:102320002C4800680D2801D14FF00008B8F1000FCB
:1023300002D1204600F0A4F9C82000F047F9062C8D
:1023400029D1012D27D1694602A801F0B6F9064628
:10235000BEB1012000F044FD002405E002A8005DAC
:102360001D490855601CC4B2062CF7DB04221A492B
:102370001A48FFF777F901201949086004B0BDE851
:10238000F081002000F02CFD00240025FEF7DEFC8B
:10239000002000F0CFFC062C06D101250024FEF71A
:1023A000D5FC012000F0C6FCFFF708F9074600271E
:1023B0004FF4FA7000F00AF9064800680F2804D0BC
:1023C0000748006800283FF47AAF0120D6E70000F4
:1023D000A42E00209C2E00208E2E0020002003081A
:1023E000A82E002030B58FB04FF0FF3461498888A7
:1023F00001AB0022042101F0E2F95E49887901ABCA
:102400000422022101F0DBF95A49C87901AB062206
:10241000022101F0D4F95749087801AB08220221C2
:1024200001F0CDF95349487801AB0A22022101F0AD
:10243000C6F95049887801AB0C22022101F0BFF99E
:1024400000F050FD8FE0FFF7B9F80546002D7FD072
:10245000002049490860284600F0FEF94748006816
:102460000C2813D1601C68B101AB13F82430303351
:10247000DAB2434B03EBC4031979414B13F8340030
:1024800001F09EF8641E002C00DC00243B4800682C
:102490000D2813D1601C68B101AB13F82430303320
:1024A000DAB2374B03EBC4031979354B13F8340018
:1024B00001F086F8641C0D2C00DB0D242F48006809
:1024C0000F280ED14FF0FF302C490860FFF776F847
:1024D000054600254FF4FA7000F078F801200FB09F
:1024E00030BD264800680E2804D101A801F012F979
:1024F0000120F4E7284600F0E1F920480068401C7C
:10250000C8B11E48006801A941F82400601C68B1E8
:1025100001AB13F824303033DAB2194B03EBC403A8
:102520001979174B13F8340001F04AF8641C0E2C8B
:1025300001D14FF0FF34601C38B1114A02EBC402E4
:1025400051680F4A52F8340000E001E000F0C0FC8E
:10255000C82000F03BF8FFF731F8054600254FF49E
:10256000FA7000F033F80748006800283FF46BAFBA
:102570000120B4E7E82F0020A42E00209C2E00208C
:10258000B02E0020A82E002010B56FF00400FFF739
:1025900065F90A4800680A49B0FBF1F0094908707A
:1025A0000846007800EB4001C1EBC0104FF6FF7108
:1025B00001EAC0000449088010BD000000000020AE
:1025C00000127A00280000202A0000200146114A4B
:1025D00012884A434FF0E0235A6100229A611A465A
:1025E000126942F001021A6100BF4FF0E022106947
:1025F00000F001021AB100F48032002AF5D04FF049
:10260000E022126922F001024FF0E0231A61002259
:102610009A6170472A0000200146114A12784A4305
:102620004FF0E0235A6100229A611A46126942F083
:1026300001021A6100BF4FF0E022106900F00102B0
:102640001AB100F48032002AF5D04FF0E02212696E
:1026500022F001024FF0E0231A6100229A617047D4
:102660002800002000BF054A128802F04002002A1C
:10267000F9D0C2B2014B1B1D1A80704700380140CF
:1026800070B50546012407E0E106080E2A22042160
:1026900000F096FF601CC4B2AC42F5DD70BD10B511
:1026A0004FF4A060FEF748FBFFF76EFFFEF7B0F9AE
:1026B000FEF778FBFEF724FF472140F2E730FFF7F3
:1026C00053FAFEF7D5FA4FF4165001F0B3F8FDF7C0
:1026D0008BFF10BD144909686FF30F01124A116096
:1026E0001146096840F2333211430F4A1160012844
:1026F0000BD101210D4A11600D4AC2F884110B4A19
:10270000083211600A4AC2F88C1158B90021074AF0
:102710001160074AC2F88411044A08321160044A61
:10272000C2F88C1170470000000C014080812142EA
:1027300000802142144909686FF30F01124A1160A9
:102740001146096843F2333211430F4A11600128E0
:102750000BD101210D4A11600D4AC2F884110B4AB8
:10276000083211600A4AC2F88C1158B90021074A90
:102770001160074AC2F88411044A08321160044A01
:10278000C2F88C1170470000001001408001224205
:1027900000002242014698291ED00EDC622923D077
:1027A00006DC002948D002292AD0222949D123E079
:1027B000682939D0902944D132E0C22924D006DCDE
:1027C000A2290DD0A82927D0B0293AD130E0E0299C
:1027D0001ED0E22935D10BE030201E4A106035E0D2
:1027E00031201C4A106031E032201A4A10602DE07E
:1027F0003320184A106029E03420164A106025E082
:102800003520144A106021E03620124A10601DE085
:102810003720104A106019E038200E4A106015E089
:1028200039200C4A106011E02A200A4A10600DE09D
:102830002320084A106009E04FF0FF30054A10607D
:1028400004E04FF0FF30034A106000BF00BF0120DA
:10285000704700009C2E00200146382913D005DC6B
:10286000E9B1102913D018291ED104E04A2906D055
:102870005A2919D10FE00C200F4A106019E00D20E1
:102880000D4A106015E00E200B4A106011E00F2079
:10289000094A10600DE01020074A106009E04FF06F
:1028A000FF30054A106004E04FF0FF30024A10602C
:1028B00000BF00BF022070479C2E002001469829CF
:1028C0001AD00CDC222927D004DC00293CD00229B4
:1028D0003FD125E0622917D090293AD130E0C229B2
:1028E00022D004DCA2290BD0A82932D124E0E0298F
:1028F0001ED0E2292DD10BE000201A4A10602DE0F5
:102900000120184A106029E00220164A106025E0D4
:102910000320144A106021E00420124A10601DE0D8
:102920000520104A106019E006200E4A106015E0DC
:1029300007200C4A106011E008200A4A10600DE0E0
:102940000920084A106009E04FF0FF30054A106086
:1029500004E04FF0FF30034A106000BF00BF0320C7
:10296000704700009C2E0020064800686FF30F009F
:10297000044908600846006840F688010843014998
:1029800008607047000C01400025FFF788FE00F04A
:10299000B7FE00F0A3FE00205D4908605DA0FDF7D2
:1029A0005BFC4FF47A70FFF711FE01205D49C1F81E
:1029B000B8015D48006818B1012055491039086018
:1029C00000F0A6FCA2E0FEF7F9FD04462046FFF762
:1029D00043FF564800680F2818D15548007803284F
:1029E00006D000F077FFFEF7B1F900F091FC0DE0A2
:1029F00000F048F94FF4C870FFF7E8FDFEF7DEFD80
:102A000004460024FEF7A2F900F082FC4748006863
:102A10000E2856D100204749086047490860401EEB
:102A200042490860FEF792F900F05EFB2EE0FEF7E7
:102A3000C5FD0446FCB100203E4908602046FFF772
:102A40000BFF00F0EFF800F0A5F805469DB16420FB
:102A5000FFF7BCFDFEF7B2FD04460024FEF776F951
:102A600000F042FB0020344908603249086000252C
:102A7000401E2E490860C820FFF7A8FDFEF79EFD06
:102A8000044600244FF4FA70FFF7A0FD27480068C1
:102A90000F2803D0284800680028C8D026480068BE
:102AA00018B9224800680F280BD14FF0FF30234996
:102AB0000860FEF74BF900F02BFCFEF77FFD0446A3
:102AC00000241A4800680D2810D11748006868B122
:102AD00000200F4910390860134908600846007843
:102AE0001749C87104221748FEF7BCFD00201149A0
:102AF0000860401E0D49086000200F49086000F082
:102B0000E3FC00F0A9FA6420FFF760FD5BE700003A
:102B1000B8812142B3F5CABCBBAFCDEAB3C9A3A10A
:102B20000D0A000000802142A02E00209C2E0020D3
:102B3000962E0020A42E0020A82E0020AC2E0020CF
:102B40008E2E00200020030870B5002400F09CFAAF
:102B500011E0FEF733FD05462846FFF77DFE0B48E2
:102B6000006840B1002009490860601CC4B2032C11
:102B700001D101200860064800680F2803D00348EF
:102B800000680028E5D0012070BD0000A82E0020BC
:102B90009C2E002010B500241F4800680E2838D154
:102BA0001E480068401C002833D0FEF7CFF81B48B1
:102BB000006888B906E0FFF7F9FA044614B1FFF798
:102BC0006DFB0446144800680F2803D014480068C1
:102BD0000028F0D0012010BD10480068012802D163
:102BE000FFF700FC04460D480068022811D106E0FA
:102BF000FFF7DCFA044614B1FFF7A6FF04460648C7
:102C000000680F2803D0064800680028F0D0012093
:102C1000E1E72046DFE700009C2E0020AC2E0020DC
:102C2000A82E002010B5154800680D280AD11448B8
:102C30000068401C1249086008460068022801DB51
:102C4000022008600D4800680C280AD10C48006872
:102C5000401E0B49086008460068002801DC00207F
:102C6000086007480068401C30B105480068400013
:102C7000811C602000F02CFB10BD00009C2E002069
:102C8000AC2E002010B5FEF761F80123264A194644
:102C9000182000F045FC0123244A1946282000F0A2
:102CA0003FFC0123214A20321946382000F038FC2D
:102CB00001231F4A1946482000F032FC01231A4A1A
:102CC00060321946582000F02BFC0123164A403A86
:102CD0000321182000F024FC0123134A203A032189
:102CE000282000F01DFC01230F4A0321382000F0AA
:102CF00017FC01230C4A203A0321482000F010FC65
:102D000001230B4A20320321582000F009FC4FF424
:102D10007A70FFF75BFC4FF47A70FFF757FC4FF4C3
:102D20007A70FFF753FC10BDC01500202012002060
:102D30002017002010B504463CB30123274A19464A
:102D4000002000F0EDFB0123244AA0321946102098
:102D500000F0E6FB0123214A80321946202000F0D2
:102D6000DFFB01231D4AA03A1946302000F0D8FBB2
:102D700001231A4A803A1946402000F0D1FB3A223A
:102D80000121502000F01CFC27E00123134A4032AF
:102D90001946002000F0C4FB0123104A6032194696
:102DA000102000F0BDFB01230C4A80321946202080
:102DB00000F0B6FB0123094AA03A1946302000F082
:102DC000AFFB0123054A803A1946402000F0A8FBDA
:102DD0003A220121502000F0F3FB10BD80120020A8
:102DE00010B50446FDF7B2FFD4B10123354A1946A8
:102DF000202000F095FB0123324A20321946302072
:102E000000F08EFB0123304A1946402000F088FB79
:102E100001232D4A20321946502000F081FB44E066
:102E20000123294A40321946182000F079FB01237A
:102E3000254A60321946282000F072FB0123224AFD
:102E400080321946382000F06BFB01231E4AA03265
:102E50001946482000F064FB01231B4AC032194682
:102E6000582000F05DFB0123184A0321182000F0D0
:102E700057FB0123144A403A0321282000F050FB5D
:102E80000123114A203A0321382000F049FB012395
:102E90000E4A20320321482000F042FB01230B4A56
:102EA00040320321582000F03BFB4FF47A70FFF7CB
:102EB0008DFB4FF47A70FFF789FB4FF47A70FFF7C0
:102EC00085FB10BD6014002040160020A0120020D9
:102ED00070B504460D46E9B2E0B25F2200F070FB27
:102EE00070BD000010B501233C4A1946282000F0AF
:102EF00017FB0123394A20321946482000F010FB05
:102F00000123364A40321946682000F009FB3A2274
:102F10000321382000F054FB2E220321502000F022
:102F20004FFB2F4880884FF47A7190FBF1F03030DE
:102F3000C4B222460121082000F042FB28488088C4
:102F40004FF47A7190FBF1F201FB1200642190FBC7
:102F5000F1F03030C4B222460121102000F030FBE5
:102F60001F488088642190FBF1F201FB12000A21C6
:102F700090FBF1F03030C4B222460121182000F05D
:102F80001FFB174880880A2190FBF1F201FB120019
:102F90003030C4B222460121202000F011FB10493C
:102FA00088790122382100F069FB0D49C879012296
:102FB000582100F063FB0A4908780322282100F019
:102FC0005DFB074948780322402100F057FB044984
:102FD00088780322582100F051FB10BD8011002099
:102FE000E82F002010B501231A4A1946002000F0EE
:102FF00097FA0123174A20321946102000F090FA60
:103000000123144A80321946202000F089FA012356
:10301000104AA0321946302000F082FA01230D4AEE
:10302000C0321946402000F07BFA0123094AE03AF9
:103030001946502000F074FA0123064AC03A194696
:10304000602000F06DFA3A220121702000F0B8FAF9
:1030500010BD0000C012002010B50948006830B152
:103060000123084A0621282000F05AFA06E001232D
:10307000044A20320621282000F052FA10BD000038
:10308000A02E0020A013002010B5FDF75FFE012345
:10309000124A1946002000F043FA01230F4A203259
:1030A0001946102000F03CFA01230D4A1946202051
:1030B00000F036FA01230A4A20321946302000F087
:1030C0002FFA3A220121402000F07AFA0623054A1D
:1030D0000321002000F0B8FA10BD00008015002088
:1030E000E01100208E2E002010B501232C4A002173
:1030F000382000F015FA0123294A20320021482007
:1031000000F00EFA0123264A40320221002000F08E
:1031100007FA0123224A60320221102000F000FA4F
:103120000123204A0221202000F0FAF901231D4A40
:1031300020320221302000F0F3F90123184A4032F6
:103140000421002000F0ECF90123154A603204212B
:10315000102000F0E5F90123114A803204212020DB
:1031600000F0DEF901230E4AA0320421302000F0E5
:10317000D7F901230A4AE03A0621002000F0D0F9ED
:103180000123074AC03A0621102000F0C9F90123A3
:10319000034AA03A0621202000F0C2F910BD000029
:1031A00020140020E011002010B50446FDF7CEFDEC
:1031B000002C3CD00123434A1946202000F0B0F9EE
:1031C0000123404A20321946302000F0A9F901239A
:1031D0003C4A80321946402000F0A2F90123394AC6
:1031E000A0321946502000F09BF90123364A0421F1
:1031F000182000F095F90123334A203204212820B9
:1032000000F08EF90123304A40320421382000F0CA
:1032100087F901232C4A60320421482000F080F90C
:1032200001232A4A0421582000F07AF93DE00123C5
:10323000244A1946202000F073F90123214A203244
:103240001946302000F06CF901231E4A403219461D
:10325000402000F065F901231A4A603219465020D7
:1032600000F05EF90123174AC0320421182000F053
:1032700057F90123144A80320421282000F050F924
:103280000123114AA0320421382000F049F901231A
:103290000C4AE0320421482000F042F901230B4A95
:1032A000C03A0421582000F03BF94FF47A70FFF740
:1032B0008DF94FF47A70FFF789F94FF47A70FFF7C0
:1032C00085F910BDE011002080150020A01300201A
:1032D00070B504460D46E0B201230C4A022100F00D
:1032E0001FF9E0B20123094A042100F019F9E0B204
:1032F0000123064A062100F013F9E9B2E0B20123E6
:10330000024A203A00F00CF970BD000000150020C0
:1033100010B501234C4A1946282000F001F9012379
:10332000494A20321946482000F0FAF80123464A5B
:1033300040321946682000F0F3F83A220321382081
:1033400000F03EF92E220321502000F039F93F48C9
:1033500080884FF47A7190FBF1F03030C4B222468D
:103360000121082000F02CF9384880884FF47A7148
:1033700090FBF1F201FB1200642190FBF1F0303080
:10338000C4B222460121102000F01AF92F4880888B
:10339000642190FBF1F201FB12000A2190FBF1F095
:1033A0003030C4B222460121182000F009F9274824
:1033B00080880A2190FBF1F201FB12003030C4B288
:1033C00022460121202000F0FBF8204988790122C3
:1033D000382100F053F91D49C8790122582100F025
:1033E0004DF91A4908780322282100F047F91749B6
:1033F00048780322402100F041F9144988780322DB
:10340000582100F03BF90123114A0621002000F069
:1034100087F801230E4A20320621102000F080F8A0
:103420003A220621202000F0CBF80123084A40323E
:103430000621582000F074F80123054A6032062165
:10344000682000F06DF810BD80110020E82F0020EA
:10345000E013002010B50123194A1946002000F09E
:103460005FF80123174A1946102000F059F801238C
:10347000144A20321946202000F052F80123104A45
:10348000403A1946302000F04BF801230C4A203A0C
:103490001946402000F044F801230A4AE03A194650
:1034A000502000F03DF80123064AC03A194660203A
:1034B00000F036F83A220121702000F081F810BDAA
:1034C00060150020C012002010B51449887803222E
:1034D000582100F0D3F811488078E8B90F494878AE
:1034E0000322402100F0CAF80C484078A0B90B49EB
:1034F00008780322282100F0C1F80848007858B95C
:103500000649C8790122582100F0B8F803498879A2
:103510000122382100F0B2F810BD0000E82F002091
:103520002DE9F04105460C4616461F461FB10F20F7
:103530002149087002E007201F490870002120205F
:10354000FDF7BCFC00210846FDF7B8FC0021212056
:10355000FDF7B4FC00212846FDF7B0FC16490978B8
:103560002944C8B20021FDF7A9FC00212220FDF763
:10357000A5FC00212046FDF7A1FC611CC8B200217A
:10358000FDF79CFC00200D4908600AE00B49096822
:10359000705C0121FDF792FC08480068401C074957
:1035A0000860054800784000401C044909688842CA
:1035B000ECDCBDE8F08100006417002060170020FB
:1035C00070B506460C461546A5F12000C5B200218F
:1035D0002020FDF773FC00210846FDF76FFC002159
:1035E0002120FDF76BFC00213046FDF767FCF11D43
:1035F000C8B20021FDF762FC00212220FDF75EFC2D
:1036000000212046FDF75AFC611CC8B20021FDF7DD
:1036100055FC00200A4908600DE00A4901EB05113C
:10362000074A1268885C0121FDF748FC04480068DD
:10363000401C03490860024800681028EDDB70BD9B
:1036400060170020D00B00202DE9F0470546894681
:1036500016461F46A84600240CE016F804A0524661
:1036600049464046FFF7ACFF08F1080000F0FF08AC
:10367000601CC4B2BC42F0DBBDE8F0872DE9F0412C
:1036800004460D4616460A2094FBF0F03030C7B2CF
:10369000F1B2E8B23A46FFF793FF0A2094FBF0F14B
:1036A00000FB11403030C7B2F1B205F10802D0B2D0
:1036B0003A46FFF785FFBDE8F08110B502460B469C
:1036C000002107E0505C5C5CA04201D0002010BDEE
:1036D000481CC1B20629F5DB0120F8E710B5042229
:1036E00004490548FDF7AAFF0248C079034908606C
:1036F00010BD00008E2E002000200308A02E002008
:1037000010B502E00220FEF761FFFDF7E9FD002899
:10371000F8D110BD2DE9FC5F044600BF20884FF4AE
:103720007A714843A18801EBC10202EB011100EB61
:103730008100218901EB810100EB4100A18945183D
:10374000207D217C01EB810100EB4106207F217E61
:1037500001EB810100EB410794F8240094F820105C
:1037600001EB810100EB410894F82C0094F828103B
:1037700001EB810100EB410994F8340094F830101A
:1037800001EB810100EB410A0AF0FF0009F0FF01A3
:1037900008F0FF03FAB2CDE90010F1B2A8B2FDF7CC
:1037A0000FFE83465846BDE8FC9F70B504460D46A3
:1037B000EBB2224604210820FFF746FF70BD30B56A
:1037C0000446042925D14FF47A7094FBF0F043F8B5
:1037D00022004FF47A7094FBF0F500FB154064254D
:1037E00090FBF5F5501C43F82050642094FBF0F555
:1037F00000FB15400A2590FBF5F5901C43F820507E
:103800000A2094FBF0F500FB1545D01C43F820502E
:103810000EE002290CD10A2094FBF0F043F82200BC
:103820000A2094FBF0F500FB1545501C43F820508E
:10383000184630BD10B586B00446012144F204009C
:10384000FDF770FB4FF40070ADF8140003208DF805
:10385000160018208DF8170005A91C48FDF748F838
:103860004FF48060ADF8140004208DF8170005A90E
:103870001648FDF73DF825208DF8000003208DF84F
:1038800001008DF8020001208DF803006846FDF765
:103890001BFA01940020ADF80800ADF80A00ADF85D
:1038A0000C00ADF810000C20ADF80E0001A908487E
:1038B000FEF706FC012240F225510548FEF7DAFB2F
:1038C00001210348FEF7A0FB06B010BD000801402F
:1038D00000380140FEB50024FDF764FAFFF7BAFD99
:1038E000601E46490860C820FEF770FEFDF766FEC0
:1038F00005460025C820FEF769FE74E0FDF75EFE70
:103900000546002D6BD000203D490860E8B2FEF767
:1039100041FF3A480068401C38B1384800780DF83B
:103920000400E0B28DF80900641CE8B2FEF794FFD1
:10393000324800680C2800D101271FB12146684693
:10394000FFF733FF2D4800680D2800D1002717B975
:10395000E0B2FEF795FEC820FEF738FE062C3AD1FD
:1039600028496846FFF7A9FE0646B6B10020264959
:103970000870012025490860FFF716FC0120244942
:103980000860084600781F49C87104222148FDF7E5
:1039900069FE012020490860FEBD1B480078401CDC
:1039A0001949087008460078032802D00020FFF764
:1039B000FBFB002414480078032808D10120FEF7FF
:1039C00057FCFFF75FF9012013490860E4E7FDF7B2
:1039D000BDF9FFF73FFDFDF7F1FD054600254FF46A
:1039E000FA70FEF7F3FD054800680F2803D00A4877
:1039F0000068002882D00020CEE700009C2E002026
:103A0000A42E00208E2E0020962E0020A881214278
:103A1000A02E002000200308A82E0020000303068B
:103A200001040602050003051F1C1F1E1F1E1F1F89
:103A30001E1F1E1F543A000800000020202F000007
:103A40006C01000830430008202F0020380F0000D0
:103A5000D0010008500600A24A04000160090102DA
:103A60000304060708090C611000061C020406087E
:103A7000000152F8083233061004100C0203811EB4
:103A8000100440C0780310060000043F040310181F
:103A90000000708888FC08300000182020FF211EDC
:103AA00000F008F08060183E1005310C031E101164
:103AB000111388700FE00C1E21232C1927211000F0
:103AC000120E703004E0180460300B07182040001C
:103AD00000020418E06820042018076F400E4080A0
:103AE000F0804040000202010F01028831201301E2
:103AF000011173010146C390705632010181B87300
:103B000030307113C038B832605F117E1005100874
:103B100008107220070F102020100FF1461001101E
:103B20000620203F2020E012080112F04010052856
:103B3000242221E812300F21D2100718202121223F
:103B40001C79200480403031140E060524243F24C3
:103B50002400F8888888086310061920202011ECBA
:103B60001406E01088889048130F1111161F2811B1
:103B70003F26682133003EBD43708850431C2250CD
:103B800043F008902006011222221190C00400C0C8
:103B9000C0C2668038510F1004402010701006011A
:103BA00002040810B032400115483101130000151D
:103BB000224032112513040272437048C01150266E
:103BC000370C140530C828E8003408071827282FB8
:103BD00028171E2580200A203C23020227382008AF
:103BE000D0119F250D21D026C000270838AD1530F3
:103BF0004005080008F8B03120154021303004E8B5
:103C0000081030A0042320181033000370313F3116
:103C1000402004221E024011A41009F808203F2170
:103C200001012125220852857F5200112006C08003
:103C300080807F0E2007F888C02818087040050192
:103C4000263820405200A0132030201004F800F83D
:103C5000542006203F013E014F4004F830C060125E
:103C600020E4363FEF21B025EF41B045E0318093AD
:103C70000100203006282830504FC0250131C034C3
:103C8000040C3020B021C14A380032189F421882FB
:103C900031A041D023001F90100A1F00087888002F
:103CA00000C83815140407380E7F12089F2200241C
:103CB0001405033E013E11401408186880806818FE
:103CC0000820302C03032C30200838C82F515021F5
:103CD0008F213F38072038262120203836FED8345F
:103CE0000400007FE85B04381F20040001060B1568
:103CF000F83EFEA8032740403011210C04100202B8
:103D000004E503528001F2001E21151DB1031405C4
:103D10001924241240400410F000104B3F11D061D0
:103D2000212A0ED042114A1E90200321F02210B306
:103D300031561110122401195094078080E09090A0
:103D400020D041774008006B949494936060110FE9
:103D5000158041F3AC048098987F0321613112599A
:103D600001119031311406203F2406298FEDAF0355
:103D700061D7214B2103112BC16071A045A03120D7
:103D8000216583FF91E02D630321E03391FF4C31E6
:103D90005019A18004200001C02233E03219E0450F
:103DA00031250252104D7680106140293D430C03AD
:103DB0005D21123009010E300C07380601CD31A10A
:103DC0004406310E2E31200D21751005818678189C
:103DD0001F51D13C06000021302C80041D810510AC
:103DE00007A0B0B0E0E0A0012D3605100C060603D8
:103DF0000302023F3F0202060139192310F01D3071
:103E000004A0F0600D3C0510180C070D046F3F185E
:103E100071052D2B035F20E0400411B9131311012C
:103E2000721F1E1C0AE060A0F0B0A0E0A0201705E1
:103E3000100F040404353D25131F1F23263F3606AB
:103E4000C1113915682C0630D01010B0D8052D9846
:103E5000051C0B090F080E0B0A1A2B2A3EF0041042
:103E60000A4040E0B0C040A0C0F0023AC0602C0B55
:103E70001F1F0A01013E2A2A1A3E61031C05808089
:103E8000B0A046031250014DB2053C0E101F191E82
:103E900012131B0F030B132626CB0322309E2D3F3C
:103EA00003211E300F1818181B0F08080F191919B5
:103EB00018381880380A602020C0A0A0B0E0A0BF49
:103EC00021803809111C07061F05063F8F300AB0F4
:103ED000A0C0A0E0E0F0E0E0211160240A08093071
:103EE0001F0D0A0A3F3FC01C0520A070D01C035CB8
:103EF000176090A0A040C0C040080407063F1414FB
:103F00000F0B3F00273F102C066C0420E0C0650516
:103F100010060018180C0CF81C070103060E1C1CD8
:103F20007904100500A0A0E07B1600811B90901979
:103F3000300C110A0E1F1F020E1D07001F6041E00A
:103F40001DF8066D90061C0E101F1F1C14180E0382
:103F5000030E1C381019052404A0A0D05D26A0A5CE
:103F60002918100601003F1F2D01132F386531E07D
:103F70001005E02000F0C235C14C0F0809090F07F9
:103F8000151417161F1F1517340206200490F0D0C1
:103F9000013EF098031DF504340A1F10180F030C9E
:103FA0000819173225FB115F11FE3D3F0510040172
:103FB00011191E1DC0036E1F10072C0940407060B0
:103FC000C0C0607026061D70074C0E123232121EE1
:103FD0000F030F0B13132202710723F08004319F8C
:103FE0001807040406023F1F4315014B0C18424CEE
:103FF0000820A0E0F02060A0CF032C0E181C0305C1
:1040000002040C0A18163331308906195A40077019
:1040100070E06070F020340E1010120A0B063F3E64
:10402000070E0A1810613C0A40C0D0B0C0C0B0D022
:10403000C0E807170C0C821804061F3FBE2C040DA5
:104040000C0C970631DC21E2312E480F202031176D
:104050001E0E070A0A1B13303010BD1406E0208024
:10406000F070BD4A403F2C0A09191511190E070DB1
:10407000182207153E1808E0E080C0C0C0D08018A4
:1040800005C040000F1F68070F0013123030E11009
:1040900004C010B0DC3FA0A00203180D10101C0FCC
:1040A000000F0A0A0A0B0F0021BD09053D59071C24
:1040B00005040C30608C083D3C070122014D590578
:1040C0005FF0E061051F010179071F0C06A8031CC2
:1040D000050C08102161061806C040E020107A4344
:1040E0007040C01D5A0519E424071317101C131043
:1040F00020091EC011E21F801022033D25033D212F
:104100000325DE4D9C091D0003115A3D80031D94BB
:10411000053EC02104280E0202121F0A2A2F17187A
:1041200007181F27991004B0F030692E10B4053D10
:10413000E1091C04070D095C031C081919393838FA
:10414000180819093C064040F0400020043D820355
:1041500018041032323A16103F5D21043C0B203017
:10416000D05050F05050D0D09F071C0B04143C1F6F
:1041700005050303053F110A313F1DC10417C07037
:104180009D4DB8081C060C0416121842031B0604A9
:104190003F3DC00625B9340740F0F0606050C024B0
:1041A0000C180F0109091F100F0C1B38C0111C211E
:1041B0002011222E70780519801C0C0633121A0E5D
:1041C000161311181C07C00821584407D0A0C0407E
:1041D0002050411C0410101FFC0364051F00171021
:1041E000E13E201C051D25052D9F031B0008BB106B
:1041F000041E1E12014F1E1E00031804203030231F
:104200006FA0205F082C050C0406031C040C05108D
:10421000030E0C081C0B6303010112030129FD1B93
:10422000A060FC56E0C0380D10141D1D0F0D0818BD
:10423000131C0E0B80253B610131DF1DC2034101C0
:104240004619004F20209F0336209F1D1F030C0D91
:10425000FF190A060301070F19113030189C0B0DC6
:10426000FF9C0B0DFF9C0B0DFF9C0B0DFF9C0B0D82
:10427000FF9C0B0DFF9C0B0DFF9C0B0DFF9C0B0D72
:10428000FF9C0B0DFF9C0B0DA99C0B0DFF960B0DBE
:10429000FF960B0DFF960B0DFF960B0DFF960B0D6A
:1042A000FF960B0DFF960B0DFF960B0DFF960B0D5A
:1042B000FF960B0DFF960B0D85960B0DFF920B0DC8
:1042C000FF920B0DFF920B0DFF920B0DFF920B0D4A
:1042D000FF920B0DFF920B0DFF920B0DFF920B0D3A
:1042E000FF920B0DFF920B0D70C4228C07323538F4
:1042F000313233512E52FF01AD652E21112D23098C
:104300002D8E0652100852180852200852380852B2
:1043100040085258085260202E286D0C2D170B5162
:1043200008524008524808525808526028000000BD
:0400000508000131BD
:00000001FF
